:020000020000FC
:0200000016C028
:10002C0035C04FE54DBF48E04EBF5FEF5ABB6FEF99
:10003C0061BBF3E0F3BFF1E0F9BFF3E8F2BF7894F2
:10004C00D0E0C0E0B0E05FEF30EC30EC30EC00EC36
:10005C000C94300060EF62BB3BBB11D05BBB61EF1B
:10006C0062BB2BBB0CD05BBB62EF62BB1BBB07D074
:10007C005BBB63EF62BB0BBB02D05BBBEBCF74E132
:10008C008AE78A95F1F77A95E1F70000EF93EFB7DD
:10009C00EF93D395DD3731F0F3E8F2BFEF91EFBF7B
:1000AC00EF911895D0E0C395C13091F0C23091F02A
:1000BC00C33091F0C43091F0C53091F0C63091F05E
:1000CC00C73091F0C83091F0C93091F0CA3091F03E
:1000DC0039EFE2CF34EAE0CF30EBDECF39E9DCCFD9
:1000EC0032E9DACF32E8D8CF38EFD6CF30E8D4CFF8
:1000FC0030E9D2CF30ECC0E0B395B13059F0B2302A
:10010C0059F0B33059F0B43059F0B53059F0B6302D
:10011C0059F0C2CF29EFC0CF24EABECF20EBBCCF21
:0E012C0029E9BACF22E9B8CF20ECB0E0B5CF78
:00000001FF
